:0400000012C0FECF5D
:10000400FDCFFCCFFBCFFACFF9CFF8CF28C026C065
:10001400F5CFF4CFF3CFF2CFF1CFF0CFEFCFEECFD8
:10002400EDCFF894EE27ECBBF1E0FBBFEBBFE5BFEF
:10003400F8E1F1BDE1BD8DE0A2E0BB27ED938A9527
:10004400E9F780E094E0A0E6ED930197E9F7EFE5A6
:10005400EDBFE4E0EEBFC0E6D1E015C01895AA9369
:10006400BA93EA93FA93EFB7EA93E2B3F0E0A1E02C
:10007400B0E0EA27FB27E2BBE991EFBFF991E991F0
:10008400B991A9911895E0E0E8BBE7BBE5BBE4BBF7
:10009400E2BBE1E0E1BBE3BFE0E0E2BFEFBDE5E0EE
:1000A400EEBDE0E0EDBDECBDE7BDE6BDEBBDEABDF8
:1000B400E9BDE8BDE2BDE5BDE4BDE3BDE5BFE5E006
:1000C400E9BFE0E8E8B9E0E0E0BF7894FFCFFFCF14
:00000001FF
