:1000000045C069C068C067C066C065C064C063C0E1
:1000100062C05AC360C05FC05EC05DC05CC05BC0F0
:100020005AC059C058C00000000000000000000481
:1000300005070000000000000000000000010204AD
:10004000081020408001020408102001020408105A
:100050002040804004040404040404040202020258
:10006000020203030303030302020300000000363D
:10007000003300300000000000380035003200007E
:1000800000000037003400310000F70111241FBECA
:10009000CFE5D4E0DEBFCDBF10E0A0E6B0E0ECE2FB
:1000A000F1E102C005900D92AE38B107D9F720E01A
:1000B000AEE8B0E001C01D92AB3BB207E1F710E043
:1000C000C6E4D0E003C02197FE0128D8C534D1078B
:1000D000D1F7DDD529C894CF20E042E060E18AE97C
:1000E00090E04AD260E087E0CAC340E060E08AE97D
:1000F00090E02BD262E670E08AE990E08DD487E050
:1001000027D4019791F4809160009091610001964D
:100110009093610080936000109291001092900083
:1001200064E670E080E090E03FD341E060E08AE97F
:1001300090E00BD28091600090916100049734F0C0
:1001400081E090E0909361008093600040E060E087
:100150008AE990E0FAD162E670E08AE990E05CD446
:10016000609196007091970080919800909199000D
:10017000603422E472072FE08207910528F1209174
:1001800060003091610023303105F1F488D620E021
:1001900034E244E759E4EFD5AB01BC01409392004F
:1001A00050939300609394007093950020918E007B
:1001B00030918F002A5F3F4F8AE990E066D567E66D
:1001C00070E08AE990E028D46091960070919700E1
:1001D0008091980090919900603422E472072FE09A
:1001E0008207910528F5209160003091610023304D
:1001F0003105F1F454D620E030E04AE754E4BBD5B1
:10020000AB01BC0140939200509393006093940023
:100210007093950020918E0030918F002D5F3F4F9D
:100220008AE990E032D56CE670E08AE990E0F4D398
:10023000609196007091970080919800909199003C
:10024000603A26E8720721E08207910528F12091A3
:1002500060003091610021303105F1F420D620E0BA
:1002600030E543EC57E487D5AB01BC0140939200E5
:1002700050939300609394007093950020918E00AA
:1002800030918F002A5F3F4F8AE990E0FED467E605
:1002900070E08AE990E0C0D3609196007091970079
:1002A0008091980090919900603A26E8720721E0C9
:1002B0008207910528F5209160003091610021307E
:1002C0003105F1F4ECD520E030E048EC52E453D5B0
:1002D000AB01BC0140939200509393006093940053
:1002E0007093950020918E0030918F002D5F3F4FCD
:1002F0008AE990E0CAD46CE670E08AE990E08CD399
:10030000609196007091970080919800909199006B
:10031000603826E9720728E98207910528F12091C3
:1003200060003091610022303105F1F4B8D520E849
:1003300036E948E15BE41FD5AB01BC014093920074
:1003400050939300609394007093950020918E00D9
:1003500030918F002A5F3F4F8AE990E096D468E69B
:1003600070E08AE990E058D3609196007091970010
:100370008091980090919900603826E9720728E9E9
:100380008207910528F520916000309161002230AC
:100390003105F1F484D520E030E44CE156E4EBD4AF
:1003A000AB01BC0140939200509393006093940082
:1003B0007093950020918E0030918F002D5F3F4FFC
:1003C0008AE990E062D46CE670E08AE990E024D398
:1003D00041E06AE08AE990E0B8D061E770E08AE93C
:1003E00090E01AD368EC70E080E090E0DDC1CF923D
:1003F000EF920F9382E0C82E93E0E92E04E026E00E
:100400004BE06CE08AE990E03BD10F91EF90CF9008
:10041000089590E080E008950895CF93DF93EC0174
:1004200060E08E8168D281E090E0F4D161E08E815D
:1004300062D281E090E0EED160E08E815CD284E611
:1004400090E0DF91CF91E6C1CF92DF92EF92FF92E1
:100450000F931F93CF93DF936C017C0187E0E80E2D
:10046000F11CD0E0C0E0062F10E0B8010C2E02C055
:10047000759567950A94E2F76170F70181917F01A4
:100480003AD22196C430D10581F7C601DF91CF91D0
:100490001F910F91FF90EF90DF90CF90BECFCF9242
:1004A000DF92EF92FF920F931F93CF93DF936C0134
:1004B0007C0187E0E80EF11CD0E0C0E0062F10E0E0
:1004C000B8010C2E02C0759567950A94E2F7617029
:1004D000F70181917F010FD22196C830D10581F7B4
:1004E000C601DF91CF911F910F91FF90EF90DF90A8
:1004F000CF9093CF1F93CF93DF93EC01162F642FF0
:100500008C81F9D18D818F3F11F060E0F4D18F851E
:10051000612F84FF05C0CE01DF91CF911F91BFCF26
:1005200070E084E0759567958A95E1F7CE018CDFE0
:10053000612FCE01DF91CF911F9186CF40E0DACFBE
:1005400061E0FCDF80ED97E065C1443008F043E0F6
:10055000FC012389421710F04FEF420FFC01E40F1A
:10056000F11D2489620F6068E9CFFC016089262FA4
:100570002460208B6C60E2CF0F931F93CF93DF93A7
:10058000EC01423018F08F8588608F874B8B1C8A76
:1005900080E48D8B6E8B605C6F8B222329F0413061
:1005A00019F48F8584608F8761E08C8168D18D819B
:1005B0008F3F11F061E063D161E08E8160D18E01E7
:1005C00098012C1B3D0B8F8584FD0CC084E090E0CE
:1005D0000F5F1F4F2817390744F461E0F801868147
:1005E0004ED1EECF88E090E0F3CF80E593EC12D1CE
:1005F00060E08C8180D160E08E817DD18D818F3FE4
:1006000011F060E078D16F8564FD28C063E0CE0111
:100610001BDF84E991E1FED063E0CE0115DF84E9C0
:1006200091E1F8D063E0CE010FDF86E990E0F2D0EF
:1006300062E0CE0109DF6F856062CE017FDF84E07A
:10064000888BCE0192DFCE017BDF82E0898B66E072
:10065000CE01DF91CF911F910F9170CF6062CE01DB
:100660006DDF84E991E1D6D06F856062CE0166DFEF
:1006700086E990E0CFD06F856062CE015FDFDBCF8F
:10068000CF92EF920F93FC011382128289E790E0E0
:100690009183808364838FEF8583468327830087DC
:1006A000E186C2861386148615861686178620E094
:1006B00041E060E1CF010F91EF90CF905DCF41E03D
:1006C00019DF81E090E008951F920F920FB60F920C
:1006D00011242F933F938F939F93AF93BF93809158
:1006E000B7009091B800A091B900B091BA003091D4
:1006F000B60026E0230F2D3768F129E8230F039673
:10070000A11DB11D2093B6008093B7009093B8004F
:10071000A093B900B093BA008091B2009091B30059
:10072000A091B400B091B5000196A11DB11D8093B8
:10073000B2009093B300A093B400B093B500BF9102
:10074000AF919F918F913F912F910F900FBE0F907E
:100750001F9018950296A11DB11DD4CF3FB7F894F4
:100760008091B2009091B300A091B400B091B50017
:1007700022B708B600FE05C02F3F19F00196A11D53
:10078000B11D3FBFBA2FA92F982F8827BC01CD01DB
:10079000620F711D811D911D43E0660F771F881F39
:1007A000991F4A95D1F708958F929F92AF92BF9269
:1007B000CF92DF92EF92FF926B017C01CFDF4B0172
:1007C0005C01C114D104E104F104D9F06AD2C6DF9E
:1007D000681979098A099B09683E7340810591056A
:1007E00080F321E0C21AD108E108F10888EE880EF2
:1007F00083E0981EA11CB11CC114D104E104F104D2
:1008000031F7FF90EF90DF90CF90BF90AF909F9027
:100810008F900895000000008330910528F0880F24
:10082000991F05970197F1F70895789483B783602E
:1008300083BF89B7816089BF82E08EBD8EB581603C
:100840008EBD8FB581608FBD85B5846085BD85B552
:10085000806485BD86E886B91AB80895853041F070
:10086000873049F0843051F48FB58F778FBD08956C
:100870008FB58F7DFBCF85B58F7D85BD0895CF93D7
:10088000DF9390E0FC01E35CFF4F24918C5A9F4F73
:10089000FC0184918823C9F090E0880F991FFC0126
:1008A000E158FF4FA591B491FC01EB58FF4FC59162
:1008B000D49161110DC09FB7F8948C91209582233B
:1008C0008C938881282328839FBFDF91CF9108953F
:1008D000623051F49FB7F8943C91822F8095832326
:1008E0008C93E8812E2BEFCF8FB7F894EC912E2BC1
:1008F0002C938FBFEACF1F93CF93DF93282F30E045
:10090000F901EA5DFF4F8491F901E35CFF4FD49157
:10091000F901EC5AFF4FC491CC23A1F0162F81119D
:100920009DDFEC2FF0E0EE0FFF1FEB58FF4FA5917E
:10093000B4918FB7F894EC91111108C0D095DE23D3
:10094000DC938FBFDF91CF911F910895DE2BF8CFFD
:10095000CF93DF93282F30E0F901EA5DFF4F8491B8
:10096000F901E35CFF4FD491F901EC5AFF4FC491B8
:10097000CC2399F0811172DFEC2FF0E0EE0FFF1F16
:10098000E559FF4FA591B491EC91ED2381E090E002
:1009900009F480E0DF91CF91089580E090E0FACFF4
:1009A000AF92BF92CF92DF92EF92FF920F931F937D
:1009B000CF93DF936C017B018B01040F151FEB01BB
:1009C0005E01AE18BF08C017D10759F06991D60172
:1009D000ED91FC910190F081E02DC6010995892BE4
:1009E00079F7C501DF91CF911F910F91FF90EF90A3
:1009F000DF90CF90BF90AF900895FB010190002051
:100A0000E9F73197AF01461B570BDC01ED91FC91E3
:100A10000280F381E02D09946115710509F0EDCF95
:100A200090E080E00895DC01ED91FC910190F0816F
:100A3000E02D09948F929F92AF92BF92EF92FF9216
:100A40000F931F93CF93DF93CDB7DEB7A1970FB668
:100A5000F894DEBF0FBECDBF7C01FA01CB0119A215
:100A6000223008F42AE08E010F5D1F4F822E912C58
:100A7000B12CA12CBF01A50194012ED3F901CA010B
:100A80006A3004F5605DD8016E938D01232B242B11
:100A9000252B81F790E080E0109719F0BD01C70188
:100AA000ACDFA1960FB6F894DEBF0FBECDBFDF91CD
:100AB000CF911F910F91FF90EF90BF90AF909F90BB
:100AC0008F900895695CDFCF2115310541F4DC0179
:100AD000ED91FC910190F081E02D642F0994AACF53
:100AE0009A01AB0170E060E0EFCF2F923F924F92FE
:100AF0005F926F927F928F929F92AF92BF92CF92AE
:100B0000DF92EF92FF921F93CF93DF93EC016A0184
:100B10007B01722EAB019601CB01B601D9D261E8FF
:100B200070E0811123C046015701E894B7F82FEF18
:100B30003FEF4FE75FE7C501B401CAD281110BC097
:100B40002FEF3FEF4FE75FE7C501B40110D165E834
:100B500070E018165CF02FEF3FEF4FE75FE4C7013E
:100B6000B6014FD21816ACF469E870E0CE01DF91FF
:100B7000CF911F91FF90EF90DF90CF90BF90AF90FB
:100B80009F908F907F906F905F904F903F902F90AD
:100B900034CF2FEF3FEF4FE75FECC701B601E7D04F
:100BA00087FDE2CF20E030E0A901C701B601DFD028
:100BB000312C212C87FF08C06DE2CE0134DF1C01EF
:100BC000F7FAF094F7F8F09410E060E070E080E05D
:100BD0009FE3711639F020E030E040E251E4CBD0E1
:100BE0001F5FF7CFA70196015ED02B013C012BD1EF
:100BF0004B015C012AE0BC01A401CE011BDF7C019A
:100C0000E20CF31C112371F1C501B40148D19B0121
:100C1000AC01C301B20146D04B015C016EE2CE01D2
:100C200002DFE80EF91E1150E8F020E030E040E26B
:100C300051E4C501B401E9D12B013C0104D14B01C0
:100C40004AE050E0CE014CDFE80EF91EB40190E01E
:100C500080E025D19B01AC01C301B20123D04B013F
:100C60005C01E1CFC701DF91CF911F91FF90EF9021
:100C7000DF90CF90BF90AF909F908F907F906F90BC
:100C80005F904F903F902F9008952FCF0895CDDD26
:100C9000FDDF22DAC0E0D0E028DA2097E9F3B0D90E
:100CA000FBCF08955058BB27AA270ED070C161D141
:100CB00030F066D120F031F49F3F11F41EF456C19C
:100CC0000EF4E095E7FB4CC1E92F72D180F3BA171F
:100CD000620773078407950718F071F49EF58AC1BF
:100CE0000EF4E0950B2EBA2FA02D0B01B901900147
:100CF0000C01CA01A0011124FF27591B99F0593F8B
:100D000050F4503E68F11A16F040A22F232F342FD2
:100D10004427585FF3CF469537952795A795F04020
:100D20005395C9F77EF41F16BA0B620B730B840B35
:100D3000BAF09150A1F0FF0FBB1F661F771F881FED
:100D4000C2F70EC0BA0F621F731F841F48F4879545
:100D500077956795B795F7959E3F08F0B3CF939534
:100D6000880F08F09927EE0F979587950895D4D0AE
:100D700008F481E008950CD00AC102D140F0F9D006
:100D800030F021F45F3F19F0EBC0511134C1EEC0D7
:100D90000FD198F39923C9F35523B1F3951B550B44
:100DA000BB27AA2762177307840738F09F5F5F4F3E
:100DB000220F331F441FAA1FA9F333D00E2E3AF07F
:100DC000E0E830D091505040E695001CCAF729D099
:100DD000FE2F27D0660F771F881FBB1F26173707E8
:100DE0004807AB07B0E809F0BB0B802DBF01FF2718
:100DF00093585F4F2AF09E3F510568F0B1C0FBC089
:100E00005F3FECF3983EDCF3869577956795B79551
:100E1000F7959F5FC9F7880F911D9695879597F96C
:100E20000895E1E0660F771F881FBB1F62177307E5
:100E30008407BA0720F0621B730B840BBA0BEE1FFA
:100E400088F7E0950895BCD088F09F5790F0B92FAF
:100E50009927B751A0F0D1F0660F771F881F991F0F
:100E60001AF0BA95C9F712C0B13081F0C3D0B1E021
:100E70000895C0C0672F782F8827B85F39F0B93F31
:100E8000CCF3869577956795B395D9F73EF4909511
:100E90008095709561957F4F8F4F9F4F0895E8948F
:100EA00009C097FB3EF490958095709561957F4FB2
:100EB0008F4F9F4F9923A9F0F92F96E9BB27939560
:100EC000F695879577956795B795F111F8CFFAF470
:100ED000BB0F11F460FF1BC06F5F7F4F8F4F9F4FA1
:100EE00016C0882311F096E911C0772321F09EE8FF
:100EF000872F762F05C0662371F096E8862F70E065
:100F000060E02AF09A95660F771F881FDAF7880F3E
:100F10009695879597F90895990F0008550FAA0B94
:100F2000E0E8FEEF16161706E807F907C0F01216FC
:100F30001306E407F50798F0621B730B840B950BFF
:100F400039F40A2661F0232B242B252B21F4089554
:100F50000A2609F4A140A6958FEF811D811D0895F1
:100F600097F99F6780E870E060E008959FEF80EC5C
:100F7000089500240A9416161706180609060895FF
:100F800000240A9412161306140605060895092E65
:100F90000394000C11F4882352F0BB0F40F4BF2BD4
:100FA00011F460FF04C06F5F7F4F8F4F9F4F089514
:100FB00057FD9058440F551F59F05F3F71F047950A
:100FC000880F97FB991F61F09F3F79F087950895EF
:100FD000121613061406551FF2CF4695F1DF08C00E
:100FE000161617061806991FF1CF8695710561052B
:100FF00008940895E894BB2766277727CB0197F9D3
:1010000008958ADF08F48FEF08950BD0C0CFB1DFC9
:1010100028F0B6DF18F0952309F0A2CFA7CF11244E
:10102000EACFC6DFA0F3959FD1F3950F50E0551F8F
:10103000629FF001729FBB27F00DB11D639FAA272D
:10104000F00DB11DAA1F649F6627B00DA11D661F7C
:10105000829F2227B00DA11D621F739FB00DA11D9D
:10106000621F839FA00D611D221F749F3327A00D57
:10107000611D231F849F600D211D822F762F6A2FF3
:1010800011249F5750408AF0E1F088234AF0EE0F78
:10109000FF1FBB1F661F771F881F91505040A9F785
:1010A0009E3F510570F05CCFA6CF5F3FECF3983EBA
:1010B000DCF3869577956795B795F795E7959F5FEC
:1010C000C1F7FE2B880F911D9695879597F9089586
:1010D00023DF880B990B0895A1E21A2EAA1BBB1BD4
:1010E000FD010DC0AA1FBB1FEE1FFF1FA217B307F4
:1010F000E407F50720F0A21BB30BE40BF50B661F0A
:10110000771F881F991F1A9469F7609570958095CD
:1011100090959B01AC01BD01CF010895EE0FFF1F1B
:0C1120000590F491E02D0994F894FFCFA5
:10112C00030046203D2000204D487A00206B487A71
:10113C00002A2A2A00000000005F03D00409020CD8
:0E114C00026E616E00696E66006F76660000CE
:00000001FF
