:1000000045C069C068C067C066C065C064C063C0E1
:1000100062C0FDC160C05FC05EC05DC05CC05BC04F
:100020005AC059C058C00000000000000000000481
:1000300005070000000000000000000000010204AD
:10004000081020408001020408102001020408105A
:100050002040804004040404040404040202020258
:10006000020203030303030302020300000000363D
:10007000003300300000000000380035003200007E
:10008000000000370034003100009A0011241FBE28
:10009000CFE5D4E0DEBFCDBF10E0A0E6B0E0E4E9FC
:1000A000F7E002C005900D92A637B107D9F720E01E
:1000B000A6E7B0E001C01D92A739B207E1F710E052
:1000C000C6E4D0E003C02197FE015CD3C534D1075C
:1000D000D1F74DD35DC394CF20E042E060E186E7E5
:1000E00090E0EDD060E087E06DD261E08DE06AD213
:1000F00040E060E086E790E0CBD060E670E086E725
:1001000090E02DC341E06AE086E790E0C1D065E66B
:1001100070E086E790E023D368EC70E080E090E048
:10012000E6D18DE0B8D261E068278DE087D286E71E
:1001300090E0A9C0CF92EF920F9387E0C82E93E092
:10014000E92E04E026E04BE06CE086E790E03BD14E
:100150000F91EF90CF90089590E080E0089508957A
:10016000CF93DF93EC0160E08E8168D281E090E074
:10017000F4D161E08E8162D281E090E0EED160E066
:100180008E815CD284E690E0DF91CF91E6C1CF9280
:10019000DF92EF92FF920F931F93CF93DF936C0147
:1001A0007C0187E0E80EF11CD0E0C0E0062F10E0F3
:1001B000B8010C2E02C0759567950A94E2F761703C
:1001C000F70181917F013AD22196C430D10581F7A0
:1001D000C601DF91CF911F910F91FF90EF90DF90BB
:1001E000CF90BECFCF92DF92EF92FF920F931F93EB
:1001F000CF93DF936C017C0187E0E80EF11CD0E027
:10020000C0E0062F10E0B8010C2E02C0759567956E
:100210000A94E2F76170F70181917F010FD2219674
:10022000C830D10581F7C601DF91CF911F910F91A1
:10023000FF90EF90DF90CF9093CF1F93CF93DF93FA
:10024000EC01162F642F8C81F9D18D818F3F11F035
:1002500060E0F4D18F85612F84FF05C0CE01DF916E
:10026000CF911F91BFCF70E084E0759567958A9517
:10027000E1F7CE018CDF612FCE01DF91CF911F918D
:1002800086CF40E0DACF61E0FCDF80ED97E065C12A
:10029000443008F043E0FC012389421710F04FEF8F
:1002A000420FFC01E40FF11D2489620F6068E9CF61
:1002B000FC016089262F2460208B6C60E2CF0F93B5
:1002C0001F93CF93DF93EC01423018F08F85886045
:1002D0008F874B8B1C8A80E48D8B6E8B605C6F8B61
:1002E000222329F0413019F48F8584608F8761E0E3
:1002F0008C8168D18D818F3F11F061E063D161E025
:100300008E8160D18E0198012C1B3D0B8F8584FD61
:100310000CC084E090E00F5F1F4F2817390744F4AA
:1003200061E0F80186814ED1EECF88E090E0F3CF16
:1003300080E593EC12D160E08C8180D160E08E8109
:100340007DD18D818F3F11F060E078D16F8564FDA4
:1003500028C063E0CE011BDF84E991E1FED063E0B9
:10036000CE0115DF84E991E1F8D063E0CE010FDF23
:1003700086E990E0F2D062E0CE0109DF6F8560622D
:10038000CE017FDF84E0888BCE0192DFCE017BDF60
:1003900082E0898B66E0CE01DF91CF911F910F91B2
:1003A00070CF6062CE016DDF84E991E1D6D06F85B8
:1003B0006062CE0166DF86E990E0CFD06F85606233
:1003C000CE015FDFDBCFCF92EF920F93FC01138260
:1003D00012828DE690E09183808364838FEF858322
:1003E000468327830087E186C28613861486158696
:1003F0001686178620E041E060E1CF010F91EF9073
:10040000CF905DCF41E019DF81E090E008951F9229
:100410000F920FB60F9211242F933F938F939F93B8
:10042000AF93BF938091930090919400A091950019
:10043000B09196003091920026E0230F2D3768F19D
:1004400029E8230F0396A11DB11D209392008093EC
:10045000930090939400A0939500B09396008091A0
:100460008E0090918F00A0919000B0919100019624
:10047000A11DB11D80938E0090938F00A0939000DA
:10048000B0939100BF91AF919F918F913F912F9128
:100490000F900FBE0F901F9018950296A11DB11DD1
:1004A000D4CF3FB7F89480918E0090918F00A091A7
:1004B0009000B091910022B708B600FE05C02F3F12
:1004C00019F00196A11DB11D3FBFBA2FA92F982F7A
:1004D0008827BC01CD01620F711D811D911D43E074
:1004E000660F771F881F991F4A95D1F708958F923D
:1004F0009F92AF92BF92CF92DF92EF92FF926B01E9
:100500007C01CFDF4B015C01C114D104E104F10493
:10051000D9F037D1C6DF681979098A099B09683E85
:1005200073408105910580F321E0C21AD108E108EA
:10053000F10888EE880E83E0981EA11CB11CC1143E
:10054000D104E104F10431F7FF90EF90DF90CF90F8
:10055000BF90AF909F908F9008950000000083306F
:10056000910528F0880F991F05970197F1F70895D5
:10057000789483B7836083BF89B7816089BF82E045
:100580008EBD8EB581608EBD8FB581608FBD85B506
:10059000846085BD85B5806485BD86E886B91AB856
:1005A0000895853041F0873049F0843051F48FB59B
:1005B0008F778FBD08958FB58F7DFBCF85B58F7DEC
:1005C00085BD0895CF93DF9390E0FC01E35CFF4F7E
:1005D00024918C5A9F4FFC0184918823C9F090E0AC
:1005E000880F991FFC01E158FF4FA591B491FC01C0
:1005F000EB58FF4FC591D49161110DC09FB7F8948E
:100600008C91209582238C938881282328839FBFF7
:10061000DF91CF910895623051F49FB7F8943C91E7
:10062000822F809583238C93E8812E2BEFCF8FB779
:10063000F894EC912E2B2C938FBFEACF1F93CF937E
:10064000DF93282F30E0F901EA5DFF4F8491F90133
:10065000E35CFF4FD491F901EC5AFF4FC491CC23D6
:10066000A1F0162F81119DDFEC2FF0E0EE0FFF1FA0
:10067000EB58FF4FA591B4918FB7F894EC911111FD
:1006800008C0D095DE23DC938FBFDF91CF911F91FF
:100690000895DE2BF8CFCF93DF93282F30E0F901B8
:1006A000EA5DFF4F8491F901E35CFF4FD491F901BA
:1006B000EC5AFF4FC491CC2399F0811172DFEC2FDB
:1006C000F0E0EE0FFF1FE559FF4FA591B491EC91BB
:1006D000ED2381E090E009F480E0DF91CF9108956F
:1006E00080E090E0FACFAF92BF92CF92DF92EF928C
:1006F000FF920F931F93CF93DF936C017B018B01CC
:10070000040F151FEB015E01AE18BF08C017D1071B
:1007100059F06991D601ED91FC910190F081E02DA5
:10072000C6010995892B79F7C501DF91CF911F91FA
:100730000F91FF90EF90DF90CF90BF90AF90089512
:10074000FB0101900020E9F73197AF01461B570BE1
:10075000DC01ED91FC910280F381E02D099461159B
:10076000710509F0EDCF90E080E00895089500DF75
:10077000FDDFB2DCC0E0D0E0C5DC2097E9F340DC6F
:10078000FBCF0895EE0FFF1F0590F491E02D099423
:04079000F894FFCF0B
:1007940046203D20002A2A2A00000000000202739D
:0607A40003AC00AF0000F1
:00000001FF
