:1000000040C064C063C062C061C060C05FC05EC009
:100010005DC0E9C35BC05AC059C058C057C056C084
:1000200055C054C053C000000000370034003100F8
:1000300000000000380035003200000000003600EB
:100040003300300004040404040404040202020225
:10005000020203030303030301020408102040808B
:100060000102040810200102040810200000000012
:100070000000000000030406000000000000000073
:10008000FA0411241FBECFE5D4E0DEBFCDBF10E0DF
:10009000A0E6B0E0EEEBFEE002C005900D92A838BD
:1000A000B107D9F720E0A8E8B0E001C01D92AF3A4F
:1000B000B207E1F710E0C1E4D0E003C02197FE01F0
:1000C000F2D6C034D107D1F7D8D3F7C699CFCF92A3
:1000D000DF92EF92FF920F931F93CF93DF936C0108
:1000E0007A018B01C0E0D0E0CE15DF0589F0D801A0
:1000F0006D918D01D601ED91FC910190F081E02D83
:10010000C6010995892B11F47E0102C02196ECCF1E
:10011000C701DF91CF911F910F91FF90EF90DF907A
:10012000CF900895843039F0863049F0833051F40F
:100130008FB58F7702C08FB58F7D8FBD089585B540
:100140008F7D85BD0895CF93DF93282F30E0F9018F
:10015000E459FF4F8491F901E85AFF4FD491F90116
:10016000EC5BFF4FC491CC2389F08111DBDFEC2FD6
:10017000F0E0EE0FFF1FE65CFF4FA591B491EC910C
:10018000ED2381E090E021F480E002C080E090E087
:10019000DF91CF9108951F93CF93DF93282F30E005
:1001A000F901E459FF4F8491F901E85AFF4FD491C6
:1001B000F901EC5BFF4FC491CC23C1F0162F8111E4
:1001C000B1DFEC2FF0E0EE0FFF1FE05DFF4FA591D8
:1001D000B4918FB7F894111105C09C91ED2FE09563
:1001E000E92302C0EC91ED2BEC938FBFDF91CF910F
:1001F0001F910895CF93DF9390E0FC01E85AFF4FE1
:100200002491FC01EC5BFF4F8491882361F190E025
:10021000880F991FFC01EA5DFF4FC591D491FC0145
:10022000E05DFF4FA591B491611109C09FB7F894AB
:100230008881209582238883EC912E230BC0623025
:1002400061F49FB7F8943881822F80958323888347
:10025000EC912E2B2C939FBF06C08FB7F894E881AA
:100260002E2B28838FBFDF91CF9108953FB7F8944D
:1002700080918D0090918E00A0918F00B0919000A0
:1002800022B708B600FE05C02F3F19F00196A11D48
:10029000B11D3FBFBA2FA92F982F8827820F911D1C
:1002A000A11DB11DBC01CD0142E0660F771F881F63
:1002B000991F4A95D1F708958F929F92AF92BF925E
:1002C000CF92DF92EF92FF926B017C01CFDF4B0167
:1002D0005C01C114D104E104F104E9F0C7DFDC01E1
:1002E000CB0188199909AA09BB09883E9340A10549
:1002F000B10578F321E0C21AD108E108F10888EECF
:10030000880E83E0981EA11CB11CC114D104E10425
:10031000F10421F7DECFFF90EF90DF90CF90BF90F8
:10032000AF909F908F900895CF93DF93EC0160E0A2
:100330008E8131DF61E08E812EDF60E08E812BDFE8
:100340008BE891E00197F1F7DF91CF910895CF927B
:10035000DF92EF92FF920F931F93CF93DF937C0175
:100360006C0187E0C80ED11CC0E0D0E0062F10E081
:10037000B8010C2E02C0759567950A94E2F761707A
:10038000F60181916F0107DF2196C430D10581F715
:10039000C701DF91CF911F910F91FF90EF90DF90F8
:1003A000CF90C2CFCF92DF92EF92FF920F931F9325
:1003B000CF93DF93EC01F62E642F8C81ECDE8D81E0
:1003C0008F3F11F060E0E7DE8F850F2D10E084FF96
:1003D00023C06E0187E0C80ED11CE12CF12CB801BE
:1003E0000E2C02C0759567950A94E2F76170F601CC
:1003F00081916F01D0DEFFEFEF1AFF0A88E0E81667
:10040000F10469F7CE01DF91CF911F910F91FF9019
:10041000EF90DF90CF9088CFB80184E07595679515
:100420008A95E1F7CE0193DF6F2DCE01DF91CF9159
:100430001F910F91FF90EF90DF90CF9088CF41E018
:10044000B1DF81E090E0089540E0ACCFEF92FF9201
:100450000F931F93CF93DF93EC01623018F08F85D9
:1004600088608F876B8B1C8A80E48D8B80E18E8BFC
:1004700080E58F8B61E08C81BDDE8D818F3F11F037
:1004800061E0B8DE61E08E81B5DE7E0187E0E80ED6
:10049000F11C00E010E08F8584FD03C084E090E053
:1004A00002C088E090E00817190744F461E0F70102
:1004B00081917F019FDE0F5F1F4FEDCF8BE39DE0AA
:1004C0000197F1F760E08C8166DE60E08E8163DE8B
:1004D0008D818F3F11F060E05EDE6F8564FD19C095
:1004E00063E0CE0134DF0BE416E4C8010197F1F7B5
:1004F00063E0CE012CDFC8010197F1F763E0CE0184
:1005000026DF83E592E00197F1F762E0CE011FDF7D
:1005100013C06062CE0198DF8BE496E40197F1F797
:100520006F856062CE0190DF83E592E00197F1F77D
:100530006F856062CE0188DF6F856062CE0184DFE7
:1005400084E0888B6CE0CE017FDF61E0CE017CDF50
:100550008BE39FE10197F1F782E0898B66E0CE01A2
:10056000DF91CF911F910F91FF90EF906DCF64308D
:1005700008F063E09091AA00691710F06FEF690F1F
:10058000E62FF0E0E956FF4F9489682F690F606805
:1005900087E990E059CF089580E090E008950097B2
:1005A00061F0FC0101900020E9F73197AF01481B91
:1005B000590BBC0187E990E08ACD80E090E0089576
:1005C000EECF8F929F92AF92BF920F931F93CF93D4
:1005D000DF93CDB7DEB7A1970FB6F894DEBF0FBE9D
:1005E000CDBF19A2423008F44AE08E010F5D1F4FC3
:1005F000842E912CA12CB12CA501940132D4E62F8C
:10060000B901CA0101501109EA3014F4E05D01C0DA
:10061000E95CD801EC93232B242B252B69F7C80127
:10062000BEDFA1960FB6F894DEBF0FBECDBFDF913F
:10063000CF911F910F91BF90AF909F908F90089591
:100640004F925F926F927F928F929F92AF92BF92E2
:10065000CF92DF92EF92FF926B017C01B42E9B014F
:10066000AC01FBD3882319F08EE690E024C026016C
:100670003701E89477F82FEF3FEF4FE75FE7C301CB
:10068000B201EBD381110CC02FEF3FEF4FE75FE7D3
:10069000C301B20131D218161CF482E790E00BC0FE
:1006A0002FEF3FEF4FE75FE4C701B6016FD3181696
:1006B0007CF486E790E0FF90EF90DF90CF90BF90C2
:1006C000AF909F908F907F906F905F904F9067CF8B
:1006D0002FEF3FEF4FE75FECC701B6010DD287FD6B
:1006E000E8CF20E030E0A901C701B60105D287FFBD
:1006F00011C0E0919700F09198000190F081E02DF9
:100700006DE287E990E009954C01F7FAF094F7F86B
:10071000F09402C0812C912CA12C60E070E080E06C
:100720009FE3AB1438F420E030E040E251E4E8D13C
:10073000A394F7CF9B01AC01C701B60179D12B017E
:100740003C0146D26B017C016FD29B01AC01C3011D
:10075000B2016DD12B013C014AE0C701B60131DF86
:100760007C01E80CF91CBB2069F0E0919700F09146
:1007700098000190F081E02D6EE287E990E0099504
:10078000E80EF91EDB2CDD20F9F020E030E040E23D
:1007900051E4C301B201FED22B013C0119D24B013D
:1007A000A12CB12C4AE0C501B4010BDFE80EF91E03
:1007B000C501B40139D29B01AC01C301B20137D1EB
:1007C0002B013C01DA94DFCFC701FF90EF90DF905F
:1007D000CF90BF90AF909F908F907F906F905F90E1
:1007E0004F90089566D31F920F920FB60F92112467
:1007F0002F933F938F939F93AF93BF9380918900E3
:1008000090918A00A0918B00B0918C00309188006B
:1008100023E0230F2D3720F40196A11DB11D05C043
:1008200026E8230F0296A11DB11D20938800809316
:10083000890090938A00A0938B00B0938C008091E4
:100840008D0090918E00A0918F00B0919000019644
:10085000A11DB11D80938D0090938E00A0938F00F9
:10086000B0939000BF91AF919F918F913F912F9145
:100870000F900FBE0F901F901895789483B78260E9
:1008800083BF83B7816083BF89B7816089BF1EBC86
:100890008EB582608EBD8EB581608EBD8FB5816054
:1008A0008FBD85B5846085BD85B5806485BD329A70
:1008B000319A309A379A1AB862E087E990E0C6DD3B
:1008C00060E087E097DC61E08DE094DC60E080E050
:1008D0004EDE8AE790E074DEC0E0D0E001E010E098
:1008E00060E080E044DE8AE790E06ADE87E02BDCAF
:1008F000019791F48091600090916100019690932E
:10090000610080936000109296001092950064E65A
:1009100070E080E090E0D0DC61E080E028DE809153
:10092000600090916100049724F01093610000939F
:10093000600060E080E01BDE8AE790E041DE8091AD
:10094000600090916100039789F4109291001092D9
:100950009200109293001092940043E050E060E007
:1009600070E0CB016DDE8FE790E02ADE80916000C1
:1009700090916100019789F4109291001092920079
:10098000109293001092940043E050E060E070E019
:10099000CB0156DE8FE790E013DE809160009091EE
:1009A0006100029789F410929100109292001092C7
:1009B00093001092940043E050E060E070E0CB01BF
:1009C0003FDE8FE790E0FCDD61E08AE0D0DD84E887
:1009D00090E0F6DD68EC70E080E090E06DDC8DE0AA
:1009E000B2DB61E068278DE0D6DB209709F478CF91
:1009F00007DB76CFE7E9F0E01382128286E690E02B
:100A00009183808384E084839FEF95839BE096832A
:100A100096E09783808783E0818782E082871386D0
:100A2000148615861686178661E0CF010FCD5058C3
:100A3000BB27AA270ED070C161D130F066D120F05B
:100A400031F49F3F11F41EF456C10EF4E095E7FB1C
:100A50004CC1E92F72D180F3BA176207730784077C
:100A6000950718F071F49EF58AC10EF4E0950B2EEF
:100A7000BA2FA02D0B01B90190010C01CA01A001F0
:100A80001124FF27591B99F0593F50F4503E68F14B
:100A90001A16F040A22F232F342F4427585FF3CF8C
:100AA000469537952795A795F0405395C9F77EF45D
:100AB0001F16BA0B620B730B840BBAF09150A1F0A6
:100AC000FF0FBB1F661F771F881FC2F70EC0BA0F2C
:100AD000621F731F841F48F4879577956795B795B4
:100AE000F7959E3F08F0B3CF9395880F08F09927AC
:100AF000EE0F979587950895D4D008F481E0089576
:100B00000CD00AC102D140F0F9D030F021F45F3F9F
:100B100019F0EBC0511134C1EEC00FD198F39923F5
:100B2000C9F35523B1F3951B550BBB27AA276217B1
:100B30007307840738F09F5F5F4F220F331F441FF6
:100B4000AA1FA9F333D00E2E3AF0E0E830D091502E
:100B50005040E695001CCAF729D0FE2F27D0660F1B
:100B6000771F881FBB1F261737074807AB07B0E85A
:100B700009F0BB0B802DBF01FF2793585F4F2AF070
:100B80009E3F510568F0B1C0FBC05F3FECF3983E5B
:100B9000DCF3869577956795B795F7959F5FC9F7CD
:100BA000880F911D9695879597F90895E1E0660F56
:100BB000771F881FBB1F621773078407BA0720F0CF
:100BC000621B730B840BBA0BEE1F88F7E095089538
:100BD000BCD088F09F5790F0B92F9927B751A0F05B
:100BE000D1F0660F771F881F991F1AF0BA95C9F7C1
:100BF00012C0B13081F0C3D0B1E00895C0C0672FFA
:100C0000782F8827B85F39F0B93FCCF38695779570
:100C10006795B395D9F73EF4909580957095619559
:100C20007F4F8F4F9F4F0895E89409C097FB3EF484
:100C300090958095709561957F4F8F4F9F4F992329
:100C4000A9F0F92F96E9BB279395F69587957795A7
:100C50006795B795F111F8CFFAF4BB0F11F460FF67
:100C60001BC06F5F7F4F8F4F9F4F16C0882311F0BF
:100C700096E911C0772321F09EE8872F762F05C0D3
:100C8000662371F096E8862F70E060E02AF09A956E
:100C9000660F771F881FDAF7880F9695879597F963
:100CA0000895990F0008550FAA0BE0E8FEEF1616FD
:100CB0001706E807F907C0F012161306E407F50750
:100CC00098F0621B730B840B950B39F40A2661F0C4
:100CD000232B242B252B21F408950A2609F4A14067
:100CE000A6958FEF811D811D089597F99F6780E874
:100CF00070E060E008959FEF80EC089500240A946E
:100D00001616170618060906089500240A941216E6
:100D10001306140605060895092E0394000C11F419
:100D2000882352F0BB0F40F4BF2B11F460FF04C0C6
:100D30006F5F7F4F8F4F9F4F089557FD9058440F1F
:100D4000551F59F05F3F71F04795880F97FB991F2A
:100D500061F09F3F79F087950895121613061406E7
:100D6000551FF2CF4695F1DF08C016161706180674
:100D7000991FF1CF86957105610508940895E8944F
:100D8000BB2766277727CB0197F908958ADF08F4F8
:100D90008FEF08950BD0C0CFB1DF28F0B6DF18F089
:100DA000952309F0A2CFA7CF1124EACFC6DFA0F385
:100DB000959FD1F3950F50E0551F629FF001729FF0
:100DC000BB27F00DB11D639FAA27F00DB11DAA1F0F
:100DD000649F6627B00DA11D661F829F2227B00D5C
:100DE000A11D621F739FB00DA11D621F839FA00DE7
:100DF000611D221F749F3327A00D611D231F849F37
:100E0000600D211D822F762F6A2F11249F5750408D
:100E10008AF0E1F088234AF0EE0FFF1FBB1F661F28
:100E2000771F881F91505040A9F79E3F510570F0E1
:100E30005CCFA6CF5F3FECF3983EDCF386957795C9
:100E40006795B795F795E7959F5FC1F7FE2B880FDC
:100E5000911D9695879597F9089523DF880B990B37
:100E60000895A1E21A2EAA1BBB1BFD010DC0AA1FEB
:100E7000BB1FEE1FFF1FA217B307E407F50720F003
:100E8000A21BB30BE40BF50B661F771F881F991F7E
:100E90001A9469F760957095809590959B01AC01C7
:100EA000BD01CF010895EE0FFF1F0590F491E02DD5
:0E0EB000099481E090E0F89400C0F894FFCF20
:100EBE000300000000001F026700CC02CB026E612F
:100ECE006E00696E66006F76660046203D2000203B
:080EDE006B487A002A2A2A0061
:00000001FF
